{
    "abi": [
        {
            "type": "constructor",
            "inputs": [],
            "stateMutability": "nonpayable"
        },
        {
            "type": "function",
            "name": "acceptTransfer",
            "inputs": [
                {
                    "name": "transferId",
                    "type": "uint256",
                    "internalType": "uint256"
                }
            ],
            "outputs": [],
            "stateMutability": "nonpayable"
        },
        {
            "type": "function",
            "name": "addressToUserId",
            "inputs": [
                {
                    "name": "",
                    "type": "address",
                    "internalType": "address"
                }
            ],
            "outputs": [
                {
                    "name": "",
                    "type": "uint256",
                    "internalType": "uint256"
                }
            ],
            "stateMutability": "view"
        },
        {
            "type": "function",
            "name": "admin",
            "inputs": [],
            "outputs": [
                {
                    "name": "",
                    "type": "address",
                    "internalType": "address"
                }
            ],
            "stateMutability": "view"
        },
        {
            "type": "function",
            "name": "changeStatusUser",
            "inputs": [
                {
                    "name": "userAddress",
                    "type": "address",
                    "internalType": "address"
                },
                {
                    "name": "newStatus",
                    "type": "uint8",
                    "internalType": "enum SupplyChain.UserStatus"
                }
            ],
            "outputs": [],
            "stateMutability": "nonpayable"
        },
        {
            "type": "function",
            "name": "createToken",
            "inputs": [
                {
                    "name": "name",
                    "type": "string",
                    "internalType": "string"
                },
                {
                    "name": "description",
                    "type": "string",
                    "internalType": "string"
                },
                {
                    "name": "totalSupply",
                    "type": "uint256",
                    "internalType": "uint256"
                },
                {
                    "name": "features",
                    "type": "string",
                    "internalType": "string"
                }
            ],
            "outputs": [],
            "stateMutability": "nonpayable"
        },
        {
            "type": "function",
            "name": "getTokenBalance",
            "inputs": [
                {
                    "name": "tokenId",
                    "type": "uint256",
                    "internalType": "uint256"
                },
                {
                    "name": "userAddress",
                    "type": "address",
                    "internalType": "address"
                }
            ],
            "outputs": [
                {
                    "name": "",
                    "type": "uint256",
                    "internalType": "uint256"
                }
            ],
            "stateMutability": "view"
        },
        {
            "type": "function",
            "name": "getSuggestedParent",
            "inputs": [
                {
                    "name": "userAddress",
                    "type": "address",
                    "internalType": "address"
                }
            ],
            "outputs": [
                {
                    "name": "",
                    "type": "uint256",
                    "internalType": "uint256"
                }
            ],
            "stateMutability": "view"
        },
        {
            "type": "function",
            "name": "getTokenView",
            "inputs": [
                {
                    "name": "tokenId",
                    "type": "uint256",
                    "internalType": "uint256"
                }
            ],
            "outputs": [
                {
                    "name": "id",
                    "type": "uint256",
                    "internalType": "uint256"
                },
                {
                    "name": "creator",
                    "type": "address",
                    "internalType": "address"
                },
                {
                    "name": "name",
                    "type": "string",
                    "internalType": "string"
                },
                {
                    "name": "description",
                    "type": "string",
                    "internalType": "string"
                },
                {
                    "name": "totalSupply",
                    "type": "uint256",
                    "internalType": "uint256"
                },
                {
                    "name": "features",
                    "type": "string",
                    "internalType": "string"
                },
                {
                    "name": "parentId",
                    "type": "uint256",
                    "internalType": "uint256"
                },
                {
                    "name": "dateCreated",
                    "type": "uint256",
                    "internalType": "uint256"
                }
            ],
            "stateMutability": "view"
        },
        {
            "type": "function",
            "name": "getTransfer",
            "inputs": [
                {
                    "name": "transferId",
                    "type": "uint256",
                    "internalType": "uint256"
                }
            ],
            "outputs": [
                {
                    "name": "id",
                    "type": "uint256",
                    "internalType": "uint256"
                },
                {
                    "name": "from",
                    "type": "address",
                    "internalType": "address"
                },
                {
                    "name": "to",
                    "type": "address",
                    "internalType": "address"
                },
                {
                    "name": "tokenId",
                    "type": "uint256",
                    "internalType": "uint256"
                },
                {
                    "name": "dateCreated",
                    "type": "uint256",
                    "internalType": "uint256"
                },
                {
                    "name": "amount",
                    "type": "uint256",
                    "internalType": "uint256"
                },
                {
                    "name": "status",
                    "type": "uint8",
                    "internalType": "enum SupplyChain.TransferStatus"
                }
            ],
            "stateMutability": "view"
        },
        {
            "type": "function",
            "name": "getUserInfo",
            "inputs": [
                {
                    "name": "userAddress",
                    "type": "address",
                    "internalType": "address"
                }
            ],
            "outputs": [
                {
                    "name": "",
                    "type": "tuple",
                    "internalType": "struct SupplyChain.User",
                    "components": [
                        {
                            "name": "id",
                            "type": "uint256",
                            "internalType": "uint256"
                        },
                        {
                            "name": "userAddress",
                            "type": "address",
                            "internalType": "address"
                        },
                        {
                            "name": "role",
                            "type": "string",
                            "internalType": "string"
                        },
                        {
                            "name": "status",
                            "type": "uint8",
                            "internalType": "enum SupplyChain.UserStatus"
                        }
                    ]
                }
            ],
            "stateMutability": "view"
        },
        {
            "type": "function",
            "name": "getUserTokens",
            "inputs": [
                {
                    "name": "user",
                    "type": "address",
                    "internalType": "address"
                }
            ],
            "outputs": [
                {
                    "name": "",
                    "type": "uint256[]",
                    "internalType": "uint256[]"
                }
            ],
            "stateMutability": "view"
        },
        {
            "type": "function",
            "name": "getUserTransfers",
            "inputs": [
                {
                    "name": "user",
                    "type": "address",
                    "internalType": "address"
                }
            ],
            "outputs": [
                {
                    "name": "",
                    "type": "uint256[]",
                    "internalType": "uint256[]"
                }
            ],
            "stateMutability": "view"
        },
        {
            "type": "function",
            "name": "isAdmin",
            "inputs": [
                {
                    "name": "a",
                    "type": "address",
                    "internalType": "address"
                }
            ],
            "outputs": [
                {
                    "name": "",
                    "type": "bool",
                    "internalType": "bool"
                }
            ],
            "stateMutability": "view"
        },
        {
            "type": "function",
            "name": "nextTokenId",
            "inputs": [],
            "outputs": [
                {
                    "name": "",
                    "type": "uint256",
                    "internalType": "uint256"
                }
            ],
            "stateMutability": "view"
        },
        {
            "type": "function",
            "name": "nextTransferId",
            "inputs": [],
            "outputs": [
                {
                    "name": "",
                    "type": "uint256",
                    "internalType": "uint256"
                }
            ],
            "stateMutability": "view"
        },
        {
            "type": "function",
            "name": "nextUserId",
            "inputs": [],
            "outputs": [
                {
                    "name": "",
                    "type": "uint256",
                    "internalType": "uint256"
                }
            ],
            "stateMutability": "view"
        },
        {
            "type": "function",
            "name": "rejectTransfer",
            "inputs": [
                {
                    "name": "transferId",
                    "type": "uint256",
                    "internalType": "uint256"
                }
            ],
            "outputs": [],
            "stateMutability": "nonpayable"
        },
        {
            "type": "function",
            "name": "requestUserRole",
            "inputs": [
                {
                    "name": "role",
                    "type": "string",
                    "internalType": "string"
                }
            ],
            "outputs": [],
            "stateMutability": "nonpayable"
        },
        {
            "type": "function",
            "name": "tokens",
            "inputs": [
                {
                    "name": "",
                    "type": "uint256",
                    "internalType": "uint256"
                }
            ],
            "outputs": [
                {
                    "name": "id",
                    "type": "uint256",
                    "internalType": "uint256"
                },
                {
                    "name": "creator",
                    "type": "address",
                    "internalType": "address"
                },
                {
                    "name": "name",
                    "type": "string",
                    "internalType": "string"
                },
                {
                    "name": "description",
                    "type": "string",
                    "internalType": "string"
                },
                {
                    "name": "totalSupply",
                    "type": "uint256",
                    "internalType": "uint256"
                },
                {
                    "name": "features",
                    "type": "string",
                    "internalType": "string"
                },
                {
                    "name": "parentId",
                    "type": "uint256",
                    "internalType": "uint256"
                },
                {
                    "name": "dateCreated",
                    "type": "uint256",
                    "internalType": "uint256"
                }
            ],
            "stateMutability": "view"
        },
        {
            "type": "function",
            "name": "transfer",
            "inputs": [
                {
                    "name": "to",
                    "type": "address",
                    "internalType": "address"
                },
                {
                    "name": "tokenId",
                    "type": "uint256",
                    "internalType": "uint256"
                },
                {
                    "name": "amount",
                    "type": "uint256",
                    "internalType": "uint256"
                }
            ],
            "outputs": [],
            "stateMutability": "nonpayable"
        },
        {
            "type": "function",
            "name": "transfers",
            "inputs": [
                {
                    "name": "",
                    "type": "uint256",
                    "internalType": "uint256"
                }
            ],
            "outputs": [
                {
                    "name": "id",
                    "type": "uint256",
                    "internalType": "uint256"
                },
                {
                    "name": "from",
                    "type": "address",
                    "internalType": "address"
                },
                {
                    "name": "to",
                    "type": "address",
                    "internalType": "address"
                },
                {
                    "name": "tokenId",
                    "type": "uint256",
                    "internalType": "uint256"
                },
                {
                    "name": "dateCreated",
                    "type": "uint256",
                    "internalType": "uint256"
                },
                {
                    "name": "amount",
                    "type": "uint256",
                    "internalType": "uint256"
                },
                {
                    "name": "status",
                    "type": "uint8",
                    "internalType": "enum SupplyChain.TransferStatus"
                }
            ],
            "stateMutability": "view"
        },
        {
            "type": "function",
            "name": "users",
            "inputs": [
                {
                    "name": "",
                    "type": "uint256",
                    "internalType": "uint256"
                }
            ],
            "outputs": [
                {
                    "name": "id",
                    "type": "uint256",
                    "internalType": "uint256"
                },
                {
                    "name": "userAddress",
                    "type": "address",
                    "internalType": "address"
                },
                {
                    "name": "role",
                    "type": "string",
                    "internalType": "string"
                },
                {
                    "name": "status",
                    "type": "uint8",
                    "internalType": "enum SupplyChain.UserStatus"
                }
            ],
            "stateMutability": "view"
        },
        {
            "type": "event",
            "name": "TokenCreated",
            "inputs": [
                {
                    "name": "tokenId",
                    "type": "uint256",
                    "indexed": true,
                    "internalType": "uint256"
                },
                {
                    "name": "creator",
                    "type": "address",
                    "indexed": true,
                    "internalType": "address"
                },
                {
                    "name": "name",
                    "type": "string",
                    "indexed": false,
                    "internalType": "string"
                },
                {
                    "name": "description",
                    "type": "string",
                    "indexed": false,
                    "internalType": "string"
                },
                {
                    "name": "totalSupply",
                    "type": "uint256",
                    "indexed": false,
                    "internalType": "uint256"
                },
                {
                    "name": "features",
                    "type": "string",
                    "indexed": false,
                    "internalType": "string"
                },
                {
                    "name": "parentId",
                    "type": "uint256",
                    "indexed": false,
                    "internalType": "uint256"
                }
            ],
            "anonymous": false
        },
        {
            "type": "event",
            "name": "TransferAccepted",
            "inputs": [
                {
                    "name": "transferId",
                    "type": "uint256",
                    "indexed": true,
                    "internalType": "uint256"
                }
            ],
            "anonymous": false
        },
        {
            "type": "event",
            "name": "TransferRejected",
            "inputs": [
                {
                    "name": "transferId",
                    "type": "uint256",
                    "indexed": true,
                    "internalType": "uint256"
                }
            ],
            "anonymous": false
        },
        {
            "type": "event",
            "name": "TransferRequested",
            "inputs": [
                {
                    "name": "transferId",
                    "type": "uint256",
                    "indexed": true,
                    "internalType": "uint256"
                },
                {
                    "name": "from",
                    "type": "address",
                    "indexed": true,
                    "internalType": "address"
                },
                {
                    "name": "to",
                    "type": "address",
                    "indexed": true,
                    "internalType": "address"
                },
                {
                    "name": "tokenId",
                    "type": "uint256",
                    "indexed": false,
                    "internalType": "uint256"
                },
                {
                    "name": "amount",
                    "type": "uint256",
                    "indexed": false,
                    "internalType": "uint256"
                }
            ],
            "anonymous": false
        },
        {
            "type": "event",
            "name": "UserRoleRequested",
            "inputs": [
                {
                    "name": "user",
                    "type": "address",
                    "indexed": true,
                    "internalType": "address"
                },
                {
                    "name": "role",
                    "type": "string",
                    "indexed": false,
                    "internalType": "string"
                }
            ],
            "anonymous": false
        },
        {
            "type": "event",
            "name": "UserStatusChanged",
            "inputs": [
                {
                    "name": "user",
                    "type": "address",
                    "indexed": true,
                    "internalType": "address"
                },
                {
                    "name": "status",
                    "type": "uint8",
                    "indexed": false,
                    "internalType": "enum SupplyChain.UserStatus"
                }
            ],
            "anonymous": false
        },
        {
            "type": "error",
            "name": "EmptyRole",
            "inputs": []
        },
        {
            "type": "error",
            "name": "NotAdmin",
            "inputs": []
        },
        {
            "type": "error",
            "name": "NoUser",
            "inputs": []
        },
        {
            "type": "error",
            "name": "StatusLocked",
            "inputs": []
        },
        {
            "type": "error",
            "name": "ParentNotAssigned",
            "inputs": []
        }
    ],
    "bytecode": {
        "object": "0x608080604052346100355760018080556004819055600655600080546001600160a01b03191633179055611e2d908161003b8239f35b600080fdfe6080604052600436101561001257600080fd5b60003560e01c8063095bcdb61461138c57806312effc321461125657806324d7806c14611221578063274fae7c14610fe5578063335d341014610f6a578063365b98b214610ef55780634f64b2be14610e88578063519dc8d214610e015780636386c1c714610d1257806375794a3c14610cf45780638782dc0014610c1f5780638b2d19c01461085f5780639377d711146107fd578063a1e6a255146107df578063b5ffbbcc146107a5578063b85b381b14610787578063c16fe90714610708578063d67b2d0814610203578063e4acfd4b1461018b578063ef57e2d2146101315763f851a4401461010357600080fd5b3461012c57600036600319011261012c576000546040516001600160a01b039091168152602090f35b600080fd5b3461012c57604036600319011261012c576024356001600160a01b038116906004359082900361012c5761016481611bd9565b60005260056020526007604060002001906000526020526020604060002054604051908152f35b3461012c57602036600319011261012c576004356101a881611bd9565b6000526005602052604060002080546101ff60018060a01b03600184015416926003810154906005810154906006810154926101f260046101eb6002850161186e565b930161186e565b9160405197889788611960565b0390f35b3461012c57608036600319011261012c5760043567ffffffffffffffff811161012c576102349036906004016119af565b60443567ffffffffffffffff811161012c576102549036906004016119af565b61025d33611c2e565b156106d4577fc0878b4b16a78e8085cba0ca02fc0924f1492924058d153153a3f286e0fd70ff61028c33611dbd565b602081519101201461069e57815115610669576024351561063257600454906102b482611a6c565b60045560008281526005602052604090208281556001810180546001600160a01b03191633179055835167ffffffffffffffff811161055d576102fa60028301546117f6565b601f81116105eb575b50806020601f821160011461057e57600091610573575b508160011b916000199060031b1c19161760028201555b6024356003820155815167ffffffffffffffff811161055d5761035760048301546117f6565b601f8111610512575b506020601f821160011461047f5761042292827f683b2ce4cf2a043bc45e354e43bf72fddcdc0559a033380681f15039c70be5009593600793600091610474575b508160011b916000199060031b1c19161760048201555b60643560058201554260068201553360005201602052602435604060002055600960205260406000208460005260205260ff6040600020541615610433575b61040c60405195608087526080870190611913565b9060243560208701528582036040870152611913565b9260643560608201528033940390a3005b3360005260096020526040600020846000526020526040600020600160ff1982541617905533600052600a60205261046f846040600020611a7b565b6103f7565b9050840151896103a1565b601f198216906004840160005260206000209160005b8181106104fa57508360079361042296937f683b2ce4cf2a043bc45e354e43bf72fddcdc0559a033380681f15039c70be5009896600194106104e1575b5050811b0160048201556103b8565b86015160001960f88460031b161c1916905589806104d2565b9192602060018192868a015181550194019201610495565b600483016000526020600020601f830160051c81019160208410610553575b601f0160051c01905b8181106105475750610360565b6000815560010161053a565b9091508190610531565b634e487b7160e01b600052604160045260246000fd5b90508501518661031a565b91506002830160005260206000206000925b601f19831684106105d3576001935082601f198116106105ba575b5050811b016002820155610331565b87015160001960f88460031b161c1916905586806105ab565b87810151825560209384019360019092019101610590565b600283016000526020600020601f830160051c81016020841061062b575b601f830160051c8201811061061f575050610303565b60008155600101610609565b5080610609565b60405162461bcd60e51b815260206004820152600f60248201526e14dd5c1c1b1e481c995c5d5a5c9959608a1b6044820152606490fd5b60405162461bcd60e51b815260206004820152600d60248201526c13985b59481c995c5d5a5c9959609a1b6044820152606490fd5b60405162461bcd60e51b815260206004820152600e60248201526d2937b632903337b93134b23232b760911b6044820152606490fd5b60405162461bcd60e51b815260206004820152600c60248201526b139bdd08185c1c1c9bdd995960a21b6044820152606490fd5b3461012c57602036600319011261012c576004358015158061077c575b61072e90611acc565b6000526007602052604060002080546101ff60018060a01b0392836001820154169360028201541690600381015460048201549060ff60066005850154940154169360405197889788611a06565b506006548110610725565b3461012c57600036600319011261012c576020600654604051908152f35b3461012c57602036600319011261012c576001600160a01b036107c66117a4565b1660005260026020526020604060002054604051908152f35b3461012c57600036600319011261012c576020600154604051908152f35b3461012c57602036600319011261012c576004356000526007602052604060002080546101ff60018060a01b0392836001820154169360028201541690600381015460048201549060ff60066005850154940154169360405197889788611a06565b3461012c5760208060031936011261012c5767ffffffffffffffff60043581811161012c576108929036906004016119af565b90815115610c0d5733600052600283526040600020548015600014610aa05750906001918254906108c282611a6c565b8455336000526002855281604060002055604051936108e085611830565b828552858501913383526040860192858452606087019460008652600052600388526040600020965187558287019060018060a01b039051166bffffffffffffffffffffffff60a01b825416179055600286019251805191821161055d5761094884546117f6565b601f8111610a57575b508790601f83116001146109f4579282939183926000946109e9575b50501b916000199060031b1c19161790555b519060048210156109d3576109bb6109ce9260037f713064be2b63db5e6f672d3804bef390205dcf7b58bf7a978b9c31a4d05f39f09501611bc1565b6040519182918583523395830190611913565b0390a2005b634e487b7160e01b600052602160045260246000fd5b01519250898061096d565b90601f1983169185600052838a6000209360005b8c88838310610a405750505010610a27575b505050811b01905561097f565b015160001960f88460031b161c19169055878080610a1a565b868601518855909601959485019487935001610a08565b8460005288600020601f840160051c8101918a8510610a96575b601f0160051c019084905b828110610a8a575050610951565b60008155018490610a7c565b9091508190610a71565b600052600383526040600020906002820190835190811161055d57610ac582546117f6565b601f8111610bc7575b5084601f8211600114610b3b57927f713064be2b63db5e6f672d3804bef390205dcf7b58bf7a978b9c31a4d05f39f09492826003936109ce96600091610b30575b508160011b9160001990861b1c19161790555b01805460ff191690556109bb565b905085015189610b0f565b601f1982169083600052866000209160005b88828210610bb1575050836109ce96937f713064be2b63db5e6f672d3804bef390205dcf7b58bf7a978b9c31a4d05f39f098969360039660019410610b99575b5050811b019055610b22565b87015160001983881b60f8161c191690558980610b8d565b600184958293958b015181550194019201610b4d565b8260005285600020601f830160051c810191878410610c03575b601f0160051c01905b818110610bf75750610ace565b60008155600101610bea565b9091508190610be1565b604051635786b17f60e01b8152600490fd5b3461012c57604036600319011261012c57610c386117a4565b60243590600482101561012c576000546001600160a01b03919082163303610cc2577fb3b609c7a5e504a312603e90d906d1667fd5caff0a840ad07bf5709a3ca1a0459160209116928360005260028252604060002054610c9a811515611b84565b60005260038252610cb2816003604060002001611bc1565b610cbf6040518092611953565ba2005b60405162461bcd60e51b815260206004820152600a60248201526927b7363c9030b236b4b760b11b6044820152606490fd5b3461012c57600036600319011261012c576020600454604051908152f35b3461012c5760208060031936011261012c57610d2c6117a4565b60006060604051610d3c81611830565b8281528285820152816040820152015260018060a01b0380911660005260028252604060002054610d6e811515611b84565b6000526003825260406000209060405191610d8883611830565b80548352816001820154169084840191825260ff6003610daa6002840161186e565b926040870193845201541690606085019360048310156109d3576101ff93610df5938652604051978897818952519088015251166040860152516080606086015260a0850190611913565b91516080840190611953565b3461012c5760208060031936011261012c576001600160a01b03610e236117a4565b16600052600a6020526040600020906040519081602084549182815201936000526020600020916000905b828210610e71576101ff85610e658189038261184c565b604051918291826117ba565b835486529485019460019384019390910190610e4e565b3461012c57602036600319011261012c576004356000908152600560205260409020805460018201546001600160a01b0316916101ff90610ecb6002820161186e565b906003810154610edd6004830161186e565b90600660058401549301549360405197889788611960565b3461012c57602036600319011261012c5760043560005260036020526040600020805460018060a01b03600183015416916101ff610f5f60ff6003610f3c6002860161186e565b940154169260405195869586526020860152608060408601526080850190611913565b916060840190611953565b3461012c5760208060031936011261012c576001600160a01b03610f8c6117a4565b16600052600b6020526040600020906040519081602084549182815201936000526020600020916000905b828210610fce576101ff85610e658189038261184c565b835486529485019460019384019390910190610fb7565b3461012c5760208060031936011261012c576004359081151580611216575b61100d90611acc565b8160005260078152604060002090600682019160ff83541660038110156109d3576110389015611b0d565b6002810180549092906001600160a01b03908116611057338214611b47565b600384019485549485600052600585526005600760406000200191600181019786895416600052838852604060002054958060005260098952604060002082600052895260ff60406000205416156111d2575b5050019283549081811061119a57906110c291611a49565b908487541660005285526040600020558282549154166000526110eb6040600020918254611abf565b90558454908160005260088452604060002083865416908160005285526040600020549282548410156000146111755750505461112791611a49565b9354600052600882526040600020925416600052526040600020555b805460ff191660011790557f91dd4234b45d77221e6eca52c141569a6d0f3b3ffe9b8a18fe8b9aafbc64b44b600080a2005b9495509550505050600052600881526040600020916000525260006040812055611143565b60405162461bcd60e51b815260048101889052601060248201526f46726f6d2062616c616e6365206c6f7760801b6044820152606490fd5b6000526009885260406000209060005287526040600020600160ff1982541617905585845416600052600a875261120f60406000208a5490611a7b565b8b806110aa565b506006548210611004565b3461012c57602036600319011261012c57602061123c6117a4565b6000546040516001600160a01b0392831691909216148152f35b3461012c5760208060031936011261012c576004359081151580611381575b61127e90611acc565b8160005260078152604060002090600682019160ff83541660038110156109d3576112a99015611b0d565b60028101546001600160a01b0392906112c59084163314611b47565b60038201928354928360005260088352604060002093600182019483865416908160005285526005604060002054930191825484101560001461135c5750505461130e91611a49565b9354600052600882526040600020925416600052526040600020555b805460ff191660021790557f1f4f8a94e17d25044030f376d297769c8f9a1a2a0616e36b498a1e7370b5863f600080a2005b949550955050505060005260088152604060002091600052526000604081205561132a565b506006548210611275565b3461012c57606036600319011261012c576113a56117a4565b602480359060448035906113b884611bd9565b6113c133611c2e565b1561176b576113cf85611c2e565b1561172f576001600160a01b038581169590939086156116fd573387146116ca578315611695576114009033611c87565b1561166357846000526020916005835260076040600020013360005283526114466040600020548760005260088552604060002033600052855260406000205490611a49565b841161162857506006549361145a85611a6c565b60065560405160e0810181811067ffffffffffffffff8211176116135790600691604052868152848101338152604082018a8152606083018a8152608084019142835260a08501938a855260c0860197600089528c60005260078b526040600020965187558060018801925116916bffffffffffffffffffffffff60a01b928382541617905560028701925116908254161790555160038401555160048301555160058201550190519160038310156115ff575060ff199160ff8383541691161790553360005260098252604060002085600052825260ff60406000205416156115c2575b5033600052600b8152611556836040600020611a7b565b84600052600b815261156c836040600020611a7b565b83600052600881526040600020336000528152604060002061158f838254611abf565b90556040519384528301527fc8262dc04f8f56abc884e1f58ca17a373610558a6cebc5e927b9e1c4668e5fdf60403393a4005b33600052600982526040600020856000528252600160406000209182541617905533600052600a81526115f9846040600020611a7b565b8561153f565b634e487b7160e01b60009081526021600452fd5b83634e487b7160e01b60005260416004526000fd5b60649350601675496e73756666696369656e7420617661696c61626c6560501b926040519462461bcd60e51b86526004860152840152820152fd5b6c496e76616c696420726f75746560981b606492600d6040519362461bcd60e51b855260206004860152840152820152fd5b506e105b5bdd5b9d081c995c5d5a5c9959608a1b606492600f6040519362461bcd60e51b855260206004860152840152820152fd5b506c29b2b633103a3930b739b332b960991b606492600d6040519362461bcd60e51b855260206004860152840152820152fd5b506b5a65726f206164647265737360a01b606492600c6040519362461bcd60e51b855260206004860152840152820152fd5b8275149958da5c1a595b9d081b9bdd08185c1c1c9bdd995960521b60649260166040519362461bcd60e51b855260206004860152840152820152fd5b827214d95b99195c881b9bdd08185c1c1c9bdd9959606a1b60649260136040519362461bcd60e51b855260206004860152840152820152fd5b600435906001600160a01b038216820361012c57565b602090602060408183019282815285518094520193019160005b8281106117e2575050505090565b8351855293810193928101926001016117d4565b90600182811c92168015611826575b602083101461181057565b634e487b7160e01b600052602260045260246000fd5b91607f1691611805565b6080810190811067ffffffffffffffff82111761055d57604052565b90601f8019910116810190811067ffffffffffffffff82111761055d57604052565b90604051918260008254611881816117f6565b908184526020946001916001811690816000146118f157506001146118b2575b5050506118b09250038361184c565b565b600090815285812095935091905b8183106118d95750506118b093508201013880806118a1565b855488840185015294850194879450918301916118c0565b925050506118b094925060ff191682840152151560051b8201013880806118a1565b919082519283825260005b84811061193f575050826000602080949584010152601f8019910116010190565b60208183018101518483018201520161191e565b9060048210156109d35752565b93916119a5936119929160c097939a99989a875260018060a01b0316602087015260e0604087015260e0860190611913565b9160608501528382036080850152611913565b9460a08201520152565b81601f8201121561012c5780359067ffffffffffffffff821161055d57604051926119e4601f8401601f19166020018561184c565b8284526020838301011161012c57816000926020809301838601378301015290565b94929796959391909760e0860198865260018060a01b0380921660208701521660408501526060840152608083015260a082015260038210156109d35760c00152565b91908203918211611a5657565b634e487b7160e01b600052601160045260246000fd5b6000198114611a565760010190565b8054906801000000000000000082101561055d5760018201808255821015611aa95760005260206000200155565b634e487b7160e01b600052603260045260246000fd5b91908201809211611a5657565b15611ad357565b60405162461bcd60e51b8152602060048201526012602482015271151c985b9cd9995c881b9bdd08199bdd5b9960721b6044820152606490fd5b15611b1457565b60405162461bcd60e51b815260206004820152600b60248201526a4e6f742070656e64696e6760a81b6044820152606490fd5b15611b4e57565b60405162461bcd60e51b815260206004820152600e60248201526d13db9b1e481c9958da5c1a595b9d60921b6044820152606490fd5b15611b8b57565b60405162461bcd60e51b815260206004820152600e60248201526d155cd95c881b9bdd08199bdd5b9960921b6044820152606490fd5b9060048110156109d35760ff80198354169116179055565b8015159081611c22575b5015611beb57565b60405162461bcd60e51b815260206004820152600f60248201526e151bdad95b881b9bdd08199bdd5b99608a1b6044820152606490fd5b90506004541138611be3565b6001600160a01b03166000908152600260205260408120548015611c83578152600360205260ff600360408320015416906004821015611c6f575060011490565b634e487b7160e01b81526021600452602490fd5b5090565b611c93611ca091611dbd565b6020815191012091611dbd565b60208151910120907f95329f0f598032755f454b63034035528a2f09e00bb3dde055a4f8e3f7b11683811480611d94575b611d64577f992f90ffb92c5ad86f1df6829115f18aaea41d6094dadc8955c35086081a7bb9811480611d6b575b611d64577f1534e98f9dd33e3681193a0541f0c2e3d732d183dcdc630aac2b943280af42a0149081611d3a575b50611d3557600090565b600190565b7fc0878b4b16a78e8085cba0ca02fc0924f1492924058d153153a3f286e0fd70ff91501438611d2b565b5050600190565b507f1534e98f9dd33e3681193a0541f0c2e3d732d183dcdc630aac2b943280af42a08214611cfe565b507f992f90ffb92c5ad86f1df6829115f18aaea41d6094dadc8955c35086081a7bb98214611cd1565b6001600160a01b03166000908152600260205260408120548015611df557604082600292611df294526003602052200161186e565b90565b50604051906020820182811067ffffffffffffffff821117611e1957604052815290565b634e487b7160e01b82526041600452602482fd",
        "linkReferences": {}
    },
    "methodIdentifiers": {
        "acceptTransfer(uint256)": "274fae7c",
        "addressToUserId(address)": "b5ffbbcc",
        "admin()": "f851a440",
        "changeStatusUser(address,uint8)": "8782dc00",
        "createToken(string,uint256,string,uint256)": "d67b2d08",
        "getTokenBalance(uint256,address)": "ef57e2d2",
        "getTokenView(uint256)": "e4acfd4b",
        "getTransfer(uint256)": "c16fe907",
        "getUserInfo(address)": "6386c1c7",
        "getUserTokens(address)": "519dc8d2",
        "getUserTransfers(address)": "335d3410",
        "isAdmin(address)": "24d7806c",
        "nextTokenId()": "75794a3c",
        "nextTransferId()": "b85b381b",
        "nextUserId()": "a1e6a255",
        "rejectTransfer(uint256)": "12effc32",
        "requestUserRole(string)": "8b2d19c0",
        "tokens(uint256)": "4f64b2be",
        "transfer(address,uint256,uint256)": "095bcdb6",
        "transfers(uint256)": "9377d711",
        "users(uint256)": "365b98b2"
    },
    "id": 19
}